{
    "_format": "hh-sol-artifact-1",
    "contractName": "Test",
    "sourceName": "contracts/Test.sol",
    "abi": [
        {
            "inputs": [
                {
                    "internalType": "address",
                    "name": "_proxyRegistryAddress",
                    "type": "address"
                },
                {
                    "internalType": "address payable",
                    "name": "_withdrawWallet",
                    "type": "address"
                },
                {
                    "internalType": "string",
                    "name": "_unRevealedUri",
                    "type": "string"
                }
            ],
            "stateMutability": "nonpayable",
            "type": "constructor"
        },
        {
            "anonymous": false,
            "inputs": [
                {
                    "indexed": true,
                    "internalType": "address",
                    "name": "owner",
                    "type": "address"
                },
                {
                    "indexed": true,
                    "internalType": "address",
                    "name": "approved",
                    "type": "address"
                },
                {
                    "indexed": true,
                    "internalType": "uint256",
                    "name": "tokenId",
                    "type": "uint256"
                }
            ],
            "name": "Approval",
            "type": "event"
        },
        {
            "anonymous": false,
            "inputs": [
                {
                    "indexed": true,
                    "internalType": "address",
                    "name": "owner",
                    "type": "address"
                },
                {
                    "indexed": true,
                    "internalType": "address",
                    "name": "operator",
                    "type": "address"
                },
                {
                    "indexed": false,
                    "internalType": "bool",
                    "name": "approved",
                    "type": "bool"
                }
            ],
            "name": "ApprovalForAll",
            "type": "event"
        },
        {
            "anonymous": false,
            "inputs": [
                {
                    "indexed": true,
                    "internalType": "address",
                    "name": "previousOwner",
                    "type": "address"
                },
                {
                    "indexed": true,
                    "internalType": "address",
                    "name": "newOwner",
                    "type": "address"
                }
            ],
            "name": "OwnershipTransferred",
            "type": "event"
        },
        {
            "anonymous": false,
            "inputs": [
                {
                    "indexed": true,
                    "internalType": "address",
                    "name": "from",
                    "type": "address"
                },
                {
                    "indexed": true,
                    "internalType": "address",
                    "name": "to",
                    "type": "address"
                },
                {
                    "indexed": true,
                    "internalType": "uint256",
                    "name": "tokenId",
                    "type": "uint256"
                }
            ],
            "name": "Transfer",
            "type": "event"
        },
        {
            "inputs": [],
            "name": "MAX_PER_TX",
            "outputs": [
                {
                    "internalType": "uint256",
                    "name": "",
                    "type": "uint256"
                }
            ],
            "stateMutability": "view",
            "type": "function"
        },
        {
            "inputs": [],
            "name": "MAX_SUPPLY",
            "outputs": [
                {
                    "internalType": "uint256",
                    "name": "",
                    "type": "uint256"
                }
            ],
            "stateMutability": "view",
            "type": "function"
        },
        {
            "inputs": [],
            "name": "RESERVES",
            "outputs": [
                {
                    "internalType": "uint256",
                    "name": "",
                    "type": "uint256"
                }
            ],
            "stateMutability": "view",
            "type": "function"
        },
        {
            "inputs": [
                {
                    "internalType": "address",
                    "name": "",
                    "type": "address"
                }
            ],
            "name": "addressToMinted",
            "outputs": [
                {
                    "internalType": "uint256",
                    "name": "",
                    "type": "uint256"
                }
            ],
            "stateMutability": "view",
            "type": "function"
        },
        {
            "inputs": [],
            "name": "allowlistMerkleRoot",
            "outputs": [
                {
                    "internalType": "bytes32",
                    "name": "",
                    "type": "bytes32"
                }
            ],
            "stateMutability": "view",
            "type": "function"
        },
        {
            "inputs": [
                {
                    "internalType": "uint256",
                    "name": "count",
                    "type": "uint256"
                },
                {
                    "internalType": "uint256",
                    "name": "allowance",
                    "type": "uint256"
                },
                {
                    "internalType": "bytes32[]",
                    "name": "proof",
                    "type": "bytes32[]"
                }
            ],
            "name": "allowlistMint",
            "outputs": [],
            "stateMutability": "payable",
            "type": "function"
        },
        {
            "inputs": [
                {
                    "internalType": "uint256",
                    "name": "count",
                    "type": "uint256"
                },
                {
                    "internalType": "uint256",
                    "name": "quantity",
                    "type": "uint256"
                },
                {
                    "internalType": "bytes32[]",
                    "name": "proof",
                    "type": "bytes32[]"
                }
            ],
            "name": "allowlistMintAlternative",
            "outputs": [],
            "stateMutability": "payable",
            "type": "function"
        },
        {
            "inputs": [
                {
                    "internalType": "address",
                    "name": "to",
                    "type": "address"
                },
                {
                    "internalType": "uint256",
                    "name": "tokenId",
                    "type": "uint256"
                }
            ],
            "name": "approve",
            "outputs": [],
            "stateMutability": "nonpayable",
            "type": "function"
        },
        {
            "inputs": [
                {
                    "internalType": "address",
                    "name": "owner",
                    "type": "address"
                }
            ],
            "name": "balanceOf",
            "outputs": [
                {
                    "internalType": "uint256",
                    "name": "",
                    "type": "uint256"
                }
            ],
            "stateMutability": "view",
            "type": "function"
        },
        {
            "inputs": [],
            "name": "baseURI",
            "outputs": [
                {
                    "internalType": "string",
                    "name": "",
                    "type": "string"
                }
            ],
            "stateMutability": "view",
            "type": "function"
        },
        {
            "inputs": [
                {
                    "internalType": "address",
                    "name": "_from",
                    "type": "address"
                },
                {
                    "internalType": "address",
                    "name": "_to",
                    "type": "address"
                },
                {
                    "internalType": "uint256[]",
                    "name": "_tokenIds",
                    "type": "uint256[]"
                },
                {
                    "internalType": "bytes",
                    "name": "data_",
                    "type": "bytes"
                }
            ],
            "name": "batchSafeTransferFrom",
            "outputs": [],
            "stateMutability": "nonpayable",
            "type": "function"
        },
        {
            "inputs": [
                {
                    "internalType": "address",
                    "name": "_from",
                    "type": "address"
                },
                {
                    "internalType": "address",
                    "name": "_to",
                    "type": "address"
                },
                {
                    "internalType": "uint256[]",
                    "name": "_tokenIds",
                    "type": "uint256[]"
                }
            ],
            "name": "batchTransferFrom",
            "outputs": [],
            "stateMutability": "nonpayable",
            "type": "function"
        },
        {
            "inputs": [
                {
                    "internalType": "uint256",
                    "name": "tokenId",
                    "type": "uint256"
                }
            ],
            "name": "burn",
            "outputs": [],
            "stateMutability": "nonpayable",
            "type": "function"
        },
        {
            "inputs": [],
            "name": "collectReserves",
            "outputs": [],
            "stateMutability": "nonpayable",
            "type": "function"
        },
        {
            "inputs": [
                {
                    "internalType": "address",
                    "name": "proxyAddress",
                    "type": "address"
                }
            ],
            "name": "flipProxyState",
            "outputs": [],
            "stateMutability": "nonpayable",
            "type": "function"
        },
        {
            "inputs": [
                {
                    "internalType": "string",
                    "name": "allowance",
                    "type": "string"
                },
                {
                    "internalType": "bytes32[]",
                    "name": "proof",
                    "type": "bytes32[]"
                }
            ],
            "name": "getAllowance",
            "outputs": [
                {
                    "internalType": "string",
                    "name": "",
                    "type": "string"
                }
            ],
            "stateMutability": "view",
            "type": "function"
        },
        {
            "inputs": [
                {
                    "internalType": "uint256",
                    "name": "tokenId",
                    "type": "uint256"
                }
            ],
            "name": "getApproved",
            "outputs": [
                {
                    "internalType": "address",
                    "name": "",
                    "type": "address"
                }
            ],
            "stateMutability": "view",
            "type": "function"
        },
        {
            "inputs": [
                {
                    "internalType": "string",
                    "name": "allowance",
                    "type": "string"
                }
            ],
            "name": "getleaf",
            "outputs": [
                {
                    "internalType": "bytes32",
                    "name": "",
                    "type": "bytes32"
                }
            ],
            "stateMutability": "view",
            "type": "function"
        },
        {
            "inputs": [
                {
                    "internalType": "address",
                    "name": "_owner",
                    "type": "address"
                },
                {
                    "internalType": "address",
                    "name": "operator",
                    "type": "address"
                }
            ],
            "name": "isApprovedForAll",
            "outputs": [
                {
                    "internalType": "bool",
                    "name": "",
                    "type": "bool"
                }
            ],
            "stateMutability": "view",
            "type": "function"
        },
        {
            "inputs": [
                {
                    "internalType": "address",
                    "name": "account",
                    "type": "address"
                },
                {
                    "internalType": "uint256[]",
                    "name": "_tokenIds",
                    "type": "uint256[]"
                }
            ],
            "name": "isOwnerOf",
            "outputs": [
                {
                    "internalType": "bool",
                    "name": "",
                    "type": "bool"
                }
            ],
            "stateMutability": "view",
            "type": "function"
        },
        {
            "inputs": [],
            "name": "name",
            "outputs": [
                {
                    "internalType": "string",
                    "name": "",
                    "type": "string"
                }
            ],
            "stateMutability": "view",
            "type": "function"
        },
        {
            "inputs": [],
            "name": "owner",
            "outputs": [
                {
                    "internalType": "address",
                    "name": "",
                    "type": "address"
                }
            ],
            "stateMutability": "view",
            "type": "function"
        },
        {
            "inputs": [
                {
                    "internalType": "uint256",
                    "name": "tokenId",
                    "type": "uint256"
                }
            ],
            "name": "ownerOf",
            "outputs": [
                {
                    "internalType": "address",
                    "name": "",
                    "type": "address"
                }
            ],
            "stateMutability": "view",
            "type": "function"
        },
        {
            "inputs": [],
            "name": "priceInWei",
            "outputs": [
                {
                    "internalType": "uint256",
                    "name": "",
                    "type": "uint256"
                }
            ],
            "stateMutability": "view",
            "type": "function"
        },
        {
            "inputs": [
                {
                    "internalType": "address",
                    "name": "",
                    "type": "address"
                }
            ],
            "name": "projectProxy",
            "outputs": [
                {
                    "internalType": "bool",
                    "name": "",
                    "type": "bool"
                }
            ],
            "stateMutability": "view",
            "type": "function"
        },
        {
            "inputs": [],
            "name": "proxyRegistryAddress",
            "outputs": [
                {
                    "internalType": "address",
                    "name": "",
                    "type": "address"
                }
            ],
            "stateMutability": "view",
            "type": "function"
        },
        {
            "inputs": [
                {
                    "internalType": "uint256",
                    "name": "count",
                    "type": "uint256"
                }
            ],
            "name": "publicMint",
            "outputs": [],
            "stateMutability": "payable",
            "type": "function"
        },
        {
            "inputs": [],
            "name": "renounceOwnership",
            "outputs": [],
            "stateMutability": "nonpayable",
            "type": "function"
        },
        {
            "inputs": [],
            "name": "reveal",
            "outputs": [],
            "stateMutability": "nonpayable",
            "type": "function"
        },
        {
            "inputs": [],
            "name": "revealed",
            "outputs": [
                {
                    "internalType": "bool",
                    "name": "",
                    "type": "bool"
                }
            ],
            "stateMutability": "view",
            "type": "function"
        },
        {
            "inputs": [
                {
                    "internalType": "address",
                    "name": "from",
                    "type": "address"
                },
                {
                    "internalType": "address",
                    "name": "to",
                    "type": "address"
                },
                {
                    "internalType": "uint256",
                    "name": "tokenId",
                    "type": "uint256"
                }
            ],
            "name": "safeTransferFrom",
            "outputs": [],
            "stateMutability": "nonpayable",
            "type": "function"
        },
        {
            "inputs": [
                {
                    "internalType": "address",
                    "name": "from",
                    "type": "address"
                },
                {
                    "internalType": "address",
                    "name": "to",
                    "type": "address"
                },
                {
                    "internalType": "uint256",
                    "name": "tokenId",
                    "type": "uint256"
                },
                {
                    "internalType": "bytes",
                    "name": "_data",
                    "type": "bytes"
                }
            ],
            "name": "safeTransferFrom",
            "outputs": [],
            "stateMutability": "nonpayable",
            "type": "function"
        },
        {
            "inputs": [
                {
                    "internalType": "bytes32",
                    "name": "_allowlistMerkleRoot",
                    "type": "bytes32"
                }
            ],
            "name": "setAllowlistMerkleRoot",
            "outputs": [],
            "stateMutability": "nonpayable",
            "type": "function"
        },
        {
            "inputs": [
                {
                    "internalType": "address",
                    "name": "operator",
                    "type": "address"
                },
                {
                    "internalType": "bool",
                    "name": "approved",
                    "type": "bool"
                }
            ],
            "name": "setApprovalForAll",
            "outputs": [],
            "stateMutability": "nonpayable",
            "type": "function"
        },
        {
            "inputs": [
                {
                    "internalType": "string",
                    "name": "_baseURI",
                    "type": "string"
                }
            ],
            "name": "setBaseURI",
            "outputs": [],
            "stateMutability": "nonpayable",
            "type": "function"
        },
        {
            "inputs": [
                {
                    "internalType": "address",
                    "name": "_proxyRegistryAddress",
                    "type": "address"
                }
            ],
            "name": "setProxyRegistryAddress",
            "outputs": [],
            "stateMutability": "nonpayable",
            "type": "function"
        },
        {
            "inputs": [
                {
                    "internalType": "string",
                    "name": "_unrevealedURI",
                    "type": "string"
                }
            ],
            "name": "setUnrevealedURI",
            "outputs": [],
            "stateMutability": "nonpayable",
            "type": "function"
        },
        {
            "inputs": [
                {
                    "internalType": "address payable",
                    "name": "_withdrawWallet",
                    "type": "address"
                }
            ],
            "name": "setWithdrawWallet",
            "outputs": [],
            "stateMutability": "nonpayable",
            "type": "function"
        },
        {
            "inputs": [
                {
                    "internalType": "bytes4",
                    "name": "interfaceId",
                    "type": "bytes4"
                }
            ],
            "name": "supportsInterface",
            "outputs": [
                {
                    "internalType": "bool",
                    "name": "",
                    "type": "bool"
                }
            ],
            "stateMutability": "view",
            "type": "function"
        },
        {
            "inputs": [],
            "name": "symbol",
            "outputs": [
                {
                    "internalType": "string",
                    "name": "",
                    "type": "string"
                }
            ],
            "stateMutability": "view",
            "type": "function"
        },
        {
            "inputs": [
                {
                    "internalType": "uint256",
                    "name": "_MAX_SUPPLY",
                    "type": "uint256"
                }
            ],
            "name": "togglePublicSale",
            "outputs": [],
            "stateMutability": "nonpayable",
            "type": "function"
        },
        {
            "inputs": [
                {
                    "internalType": "uint256",
                    "name": "index",
                    "type": "uint256"
                }
            ],
            "name": "tokenByIndex",
            "outputs": [
                {
                    "internalType": "uint256",
                    "name": "",
                    "type": "uint256"
                }
            ],
            "stateMutability": "view",
            "type": "function"
        },
        {
            "inputs": [
                {
                    "internalType": "address",
                    "name": "owner",
                    "type": "address"
                },
                {
                    "internalType": "uint256",
                    "name": "index",
                    "type": "uint256"
                }
            ],
            "name": "tokenOfOwnerByIndex",
            "outputs": [
                {
                    "internalType": "uint256",
                    "name": "tokenId",
                    "type": "uint256"
                }
            ],
            "stateMutability": "view",
            "type": "function"
        },
        {
            "inputs": [
                {
                    "internalType": "uint256",
                    "name": "_tokenId",
                    "type": "uint256"
                }
            ],
            "name": "tokenURI",
            "outputs": [
                {
                    "internalType": "string",
                    "name": "",
                    "type": "string"
                }
            ],
            "stateMutability": "view",
            "type": "function"
        },
        {
            "inputs": [],
            "name": "totalSupply",
            "outputs": [
                {
                    "internalType": "uint256",
                    "name": "",
                    "type": "uint256"
                }
            ],
            "stateMutability": "view",
            "type": "function"
        },
        {
            "inputs": [
                {
                    "internalType": "address",
                    "name": "from",
                    "type": "address"
                },
                {
                    "internalType": "address",
                    "name": "to",
                    "type": "address"
                },
                {
                    "internalType": "uint256",
                    "name": "tokenId",
                    "type": "uint256"
                }
            ],
            "name": "transferFrom",
            "outputs": [],
            "stateMutability": "nonpayable",
            "type": "function"
        },
        {
            "inputs": [
                {
                    "internalType": "address",
                    "name": "newOwner",
                    "type": "address"
                }
            ],
            "name": "transferOwnership",
            "outputs": [],
            "stateMutability": "nonpayable",
            "type": "function"
        },
        {
            "inputs": [],
            "name": "unRevealedUri",
            "outputs": [
                {
                    "internalType": "string",
                    "name": "",
                    "type": "string"
                }
            ],
            "stateMutability": "view",
            "type": "function"
        },
        {
            "inputs": [
                {
                    "internalType": "address",
                    "name": "_owner",
                    "type": "address"
                }
            ],
            "name": "walletOfOwner",
            "outputs": [
                {
                    "internalType": "uint256[]",
                    "name": "",
                    "type": "uint256[]"
                }
            ],
            "stateMutability": "view",
            "type": "function"
        },
        {
            "inputs": [],
            "name": "withdraw",
            "outputs": [],
            "stateMutability": "nonpayable",
            "type": "function"
        },
        {
            "inputs": [],
            "name": "withdrawWallet",
            "outputs": [
                {
                    "internalType": "address payable",
                    "name": "",
                    "type": "address"
                }
            ],
            "stateMutability": "view",
            "type": "function"
        }
    ],
    "bytecode": "0x60806040526000600c60006101000a81548160ff0219169083151502179055503480156200002c57600080fd5b5060405162005dee38038062005dee8339818101604052810190620000529190620004ac565b6040518060400160405280600481526020017f54657374000000000000000000000000000000000000000000000000000000008152506040518060400160405280600481526020017f54657374000000000000000000000000000000000000000000000000000000008152508160009081620000cf919062000772565b508060019081620000e1919062000772565b50505062000104620000f8620001a160201b60201c565b620001a960201b60201c565b806007908162000115919062000772565b5082600860006101000a81548173ffffffffffffffffffffffffffffffffffffffff021916908373ffffffffffffffffffffffffffffffffffffffff16021790555081600960006101000a81548173ffffffffffffffffffffffffffffffffffffffff021916908373ffffffffffffffffffffffffffffffffffffffff16021790555050505062000859565b600033905090565b6000600560009054906101000a900473ffffffffffffffffffffffffffffffffffffffff16905081600560006101000a81548173ffffffffffffffffffffffffffffffffffffffff021916908373ffffffffffffffffffffffffffffffffffffffff1602179055508173ffffffffffffffffffffffffffffffffffffffff168173ffffffffffffffffffffffffffffffffffffffff167f8be0079c531659141344cd1fd0a4f28419497f9722a3daafe3b4186f6b6457e060405160405180910390a35050565b6000604051905090565b600080fd5b600080fd5b600073ffffffffffffffffffffffffffffffffffffffff82169050919050565b6000620002b08262000283565b9050919050565b620002c281620002a3565b8114620002ce57600080fd5b50565b600081519050620002e281620002b7565b92915050565b6000620002f58262000283565b9050919050565b6200030781620002e8565b81146200031357600080fd5b50565b6000815190506200032781620002fc565b92915050565b600080fd5b600080fd5b6000601f19601f8301169050919050565b7f4e487b7100000000000000000000000000000000000000000000000000000000600052604160045260246000fd5b620003828262000337565b810181811067ffffffffffffffff82111715620003a457620003a362000348565b5b80604052505050565b6000620003b96200026f565b9050620003c7828262000377565b919050565b600067ffffffffffffffff821115620003ea57620003e962000348565b5b620003f58262000337565b9050602081019050919050565b60005b838110156200042257808201518184015260208101905062000405565b60008484015250505050565b6000620004456200043f84620003cc565b620003ad565b90508281526020810184848401111562000464576200046362000332565b5b6200047184828562000402565b509392505050565b600082601f8301126200049157620004906200032d565b5b8151620004a38482602086016200042e565b91505092915050565b600080600060608486031215620004c857620004c762000279565b5b6000620004d886828701620002d1565b9350506020620004eb8682870162000316565b925050604084015167ffffffffffffffff8111156200050f576200050e6200027e565b5b6200051d8682870162000479565b9150509250925092565b600081519050919050565b7f4e487b7100000000000000000000000000000000000000000000000000000000600052602260045260246000fd5b600060028204905060018216806200057a57607f821691505b60208210810362000590576200058f62000532565b5b50919050565b60008190508160005260206000209050919050565b60006020601f8301049050919050565b600082821b905092915050565b600060088302620005fa7fffffffffffffffffffffffffffffffffffffffffffffffffffffffffffffffff82620005bb565b620006068683620005bb565b95508019841693508086168417925050509392505050565b6000819050919050565b6000819050919050565b6000620006536200064d62000647846200061e565b62000628565b6200061e565b9050919050565b6000819050919050565b6200066f8362000632565b620006876200067e826200065a565b848454620005c8565b825550505050565b600090565b6200069e6200068f565b620006ab81848462000664565b505050565b5b81811015620006d357620006c760008262000694565b600181019050620006b1565b5050565b601f8211156200072257620006ec8162000596565b620006f784620005ab565b8101602085101562000707578190505b6200071f6200071685620005ab565b830182620006b0565b50505b505050565b600082821c905092915050565b6000620007476000198460080262000727565b1980831691505092915050565b600062000762838362000734565b9150826002028217905092915050565b6200077d8262000527565b67ffffffffffffffff81111562000799576200079862000348565b5b620007a5825462000561565b620007b2828285620006d7565b600060209050601f831160018114620007ea5760008415620007d5578287015190505b620007e1858262000754565b86555062000851565b601f198416620007fa8662000596565b60005b828110156200082457848901518255600182019150602085019450602081019050620007fd565b8683101562000844578489015162000840601f89168262000734565b8355505b6001600288020188555050505b505050505050565b61558580620008696000396000f3fe6080604052600436106102e45760003560e01c806366fddfa911610190578063a475b5dd116100dc578063e985e9c511610095578063f43a22dc1161006f578063f43a22dc14610b33578063f73c814b14610b5e578063f95df41414610b87578063fe2c7fee14610bb0576102e4565b8063e985e9c514610aa4578063f2fde38b14610ae1578063f3993d1114610b0a576102e4565b8063a475b5dd14610996578063b88d4fde146109ad578063c87b56dd146109d6578063cd6eda1014610a13578063cd7c032614610a50578063d26ea6c014610a7b576102e4565b80638cf7be7e1161014957806395d89b411161012357806395d89b41146108da5780639c107c1d146109055780639ec00c9514610930578063a22cb4651461096d576102e4565b80638cf7be7e1461085d5780638da5cb5b146108865780639373f432146108b1576102e4565b806366fddfa91461075a5780636add301b146107975780636c0360eb146107b357806370a08231146107de578063715018a61461081b57806385d178f414610832576102e4565b806332cb6b0c1161024f5780634d44660c1161020857806355f804b3116101e257806355f804b31461068e5780635a4fee30146106b75780635bab26e2146106e05780636352211e1461071d576102e4565b80634d44660c146105e95780634f6ccce7146106265780635183022714610663576102e4565b806332cb6b0c146104ed5780633c8da588146105185780633ccfd60b1461054357806342842e0e1461055a57806342966c6814610583578063438b6300146105ac576102e4565b806318160ddd116102a157806318160ddd146103f957806323b872dd14610424578063293108e01461044d5780632d945cb9146104785780632db11544146104945780632f745c59146104b0576102e4565b806301ffc9a7146102e9578063029877b61461032657806306fdde031461033d578063081812fc146103685780630922f9c5146103a5578063095ea7b3146103d0575b600080fd5b3480156102f557600080fd5b50610310600480360381019061030b91906134d3565b610bd9565b60405161031d919061351b565b60405180910390f35b34801561033257600080fd5b5061033b610c53565b005b34801561034957600080fd5b50610352610cd6565b60405161035f91906135c6565b60405180910390f35b34801561037457600080fd5b5061038f600480360381019061038a919061361e565b610d68565b60405161039c919061368c565b60405180910390f35b3480156103b157600080fd5b506103ba610ded565b6040516103c791906136b6565b60405180910390f35b3480156103dc57600080fd5b506103f760048036038101906103f291906136fd565b610df2565b005b34801561040557600080fd5b5061040e610f09565b60405161041b91906136b6565b60405180910390f35b34801561043057600080fd5b5061044b6004803603810190610446919061373d565b610f16565b005b34801561045957600080fd5b50610462610f76565b60405161046f91906137a9565b60405180910390f35b610492600480360381019061048d9190613829565b610f7c565b005b6104ae60048036038101906104a9919061361e565b6111d2565b005b3480156104bc57600080fd5b506104d760048036038101906104d291906136fd565b6112ff565b6040516104e491906136b6565b60405180910390f35b3480156104f957600080fd5b50610502611442565b60405161050f91906136b6565b60405180910390f35b34801561052457600080fd5b5061052d611448565b60405161053a91906136b6565b60405180910390f35b34801561054f57600080fd5b50610558611451565b005b34801561056657600080fd5b50610581600480360381019061057c919061373d565b61152a565b005b34801561058f57600080fd5b506105aa60048036038101906105a5919061361e565b61154a565b005b3480156105b857600080fd5b506105d360048036038101906105ce919061389d565b6115a6565b6040516105e09190613988565b60405180910390f35b3480156105f557600080fd5b50610610600480360381019061060b9190613a00565b6116af565b60405161061d919061351b565b60405180910390f35b34801561063257600080fd5b5061064d6004803603810190610648919061361e565b611770565b60405161065a91906136b6565b60405180910390f35b34801561066f57600080fd5b506106786117c1565b604051610685919061351b565b60405180910390f35b34801561069a57600080fd5b506106b560048036038101906106b09190613b90565b6117d4565b005b3480156106c357600080fd5b506106de60048036038101906106d99190613d3d565b6117ef565b005b3480156106ec57600080fd5b506107076004803603810190610702919061389d565b61183b565b604051610714919061351b565b60405180910390f35b34801561072957600080fd5b50610744600480360381019061073f919061361e565b61185b565b604051610751919061368c565b60405180910390f35b34801561076657600080fd5b50610781600480360381019061077c9190613ddc565b611917565b60405161078e91906135c6565b60405180910390f35b6107b160048036038101906107ac9190613829565b6119e2565b005b3480156107bf57600080fd5b506107c8611c2c565b6040516107d591906135c6565b60405180910390f35b3480156107ea57600080fd5b506108056004803603810190610800919061389d565b611cba565b60405161081291906136b6565b60405180910390f35b34801561082757600080fd5b50610830611dd4565b005b34801561083e57600080fd5b50610847611de8565b6040516108549190613e79565b60405180910390f35b34801561086957600080fd5b50610884600480360381019061087f919061361e565b611e0e565b005b34801561089257600080fd5b5061089b611e26565b6040516108a8919061368c565b60405180910390f35b3480156108bd57600080fd5b506108d860048036038101906108d39190613ec0565b611e50565b005b3480156108e657600080fd5b506108ef611e9c565b6040516108fc91906135c6565b60405180910390f35b34801561091157600080fd5b5061091a611f2e565b60405161092791906135c6565b60405180910390f35b34801561093c57600080fd5b506109576004803603810190610952919061389d565b611fbc565b60405161096491906136b6565b60405180910390f35b34801561097957600080fd5b50610994600480360381019061098f9190613f19565b611fd4565b005b3480156109a257600080fd5b506109ab612154565b005b3480156109b957600080fd5b506109d460048036038101906109cf9190613f59565b612179565b005b3480156109e257600080fd5b506109fd60048036038101906109f8919061361e565b6121db565b604051610a0a91906135c6565b60405180910390f35b348015610a1f57600080fd5b50610a3a6004803603810190610a359190613b90565b612305565b604051610a4791906137a9565b60405180910390f35b348015610a5c57600080fd5b50610a65612343565b604051610a72919061368c565b60405180910390f35b348015610a8757600080fd5b50610aa26004803603810190610a9d919061389d565b612369565b005b348015610ab057600080fd5b50610acb6004803603810190610ac69190613fdc565b6123b5565b604051610ad8919061351b565b60405180910390f35b348015610aed57600080fd5b50610b086004803603810190610b03919061389d565b6124fc565b005b348015610b1657600080fd5b50610b316004803603810190610b2c919061401c565b61257f565b005b348015610b3f57600080fd5b50610b486125c9565b604051610b5591906136b6565b60405180910390f35b348015610b6a57600080fd5b50610b856004803603810190610b80919061389d565b6125ce565b005b348015610b9357600080fd5b50610bae6004803603810190610ba991906140b7565b61267d565b005b348015610bbc57600080fd5b50610bd76004803603810190610bd29190613b90565b61268f565b005b60007f780e9d63000000000000000000000000000000000000000000000000000000007bffffffffffffffffffffffffffffffffffffffffffffffffffffffff1916827bffffffffffffffffffffffffffffffffffffffffffffffffffffffff19161480610c4c5750610c4b826126aa565b5b9050919050565b610c5b61278c565b600060028054905014610ca3576040517f08c379a0000000000000000000000000000000000000000000000000000000008152600401610c9a90614130565b60405180910390fd5b60005b6005811015610cd357610cc0610cba61280a565b82612812565b8080610ccb9061417f565b915050610ca6565b50565b606060008054610ce5906141f6565b80601f0160208091040260200160405190810160405280929190818152602001828054610d11906141f6565b8015610d5e5780601f10610d3357610100808354040283529160200191610d5e565b820191906000526020600020905b815481529060010190602001808311610d4157829003601f168201915b5050505050905090565b6000610d73826128d5565b610db2576040517f08c379a0000000000000000000000000000000000000000000000000000000008152600401610da990614299565b60405180910390fd5b6003600083815260200190815260200160002060009054906101000a900473ffffffffffffffffffffffffffffffffffffffff169050919050565b600581565b6000610dfd8261185b565b90508073ffffffffffffffffffffffffffffffffffffffff168373ffffffffffffffffffffffffffffffffffffffff1603610e6d576040517f08c379a0000000000000000000000000000000000000000000000000000000008152600401610e649061432b565b60405180910390fd5b8073ffffffffffffffffffffffffffffffffffffffff16610e8c61280a565b73ffffffffffffffffffffffffffffffffffffffff161480610ebb5750610eba81610eb561280a565b6123b5565b5b610efa576040517f08c379a0000000000000000000000000000000000000000000000000000000008152600401610ef1906143bd565b60405180910390fd5b610f04838361295d565b505050565b6000600280549050905090565b610f27610f2161280a565b82612a16565b610f66576040517f08c379a0000000000000000000000000000000000000000000000000000000008152600401610f5d9061444f565b60405180910390fd5b610f71838383612af4565b505050565b600a5481565b6000610f8661280a565b604051602001610f9691906144b7565b6040516020818303038152906040529050611003610fbc610fb686612cac565b83612d7a565b848480806020026020016040519081016040528093929190818152602001838360200280828437600081840152601f19601f82011690508083019250505050505050612dad565b611042576040517f08c379a000000000000000000000000000000000000000000000000000000000815260040161103990614544565b60405180910390fd5b8385600e600061105061280a565b73ffffffffffffffffffffffffffffffffffffffff1673ffffffffffffffffffffffffffffffffffffffff168152602001908152602001600020546110959190614564565b11156110d6576040517f08c379a00000000000000000000000000000000000000000000000000000000081526004016110cd906145e4565b60405180910390fd5b3464e8d4a51000866110e89190614604565b14611128576040517f08c379a000000000000000000000000000000000000000000000000000000000815260040161111f90614692565b60405180910390fd5b84600e600061113561280a565b73ffffffffffffffffffffffffffffffffffffffff1673ffffffffffffffffffffffffffffffffffffffff168152602001908152602001600020600082825461117e9190614564565b925050819055506000600280549050905060005b868110156111c9576111b66111a561280a565b82846111b19190614564565b612812565b80806111c19061417f565b915050611192565b50505050505050565b60006002805490509050600b5482826111eb9190614564565b1061122b576040517f08c379a0000000000000000000000000000000000000000000000000000000008152600401611222906146fe565b60405180910390fd5b6006821061126e576040517f08c379a00000000000000000000000000000000000000000000000000000000081526004016112659061476a565b60405180910390fd5b3464e8d4a51000836112809190614604565b146112c0576040517f08c379a00000000000000000000000000000000000000000000000000000000081526004016112b790614692565b60405180910390fd5b60005b828110156112fa576112e76112d661280a565b82846112e29190614564565b612812565b80806112f29061417f565b9150506112c3565b505050565b600061130a83611cba565b821061134b576040517f08c379a0000000000000000000000000000000000000000000000000000000008152600401611342906147fc565b60405180910390fd5b6000805b60028054905081101561140057600281815481106113705761136f61481c565b5b9060005260206000200160009054906101000a900473ffffffffffffffffffffffffffffffffffffffff1673ffffffffffffffffffffffffffffffffffffffff168573ffffffffffffffffffffffffffffffffffffffff16036113ed578382036113de57809250505061143c565b81806113e99061417f565b9250505b80806113f89061417f565b91505061134f565b506040517f08c379a0000000000000000000000000000000000000000000000000000000008152600401611433906147fc565b60405180910390fd5b92915050565b600b5481565b64e8d4a5100081565b61145961278c565b6000600960009054906101000a900473ffffffffffffffffffffffffffffffffffffffff1673ffffffffffffffffffffffffffffffffffffffff16476040516114a19061487c565b60006040518083038185875af1925050503d80600081146114de576040519150601f19603f3d011682016040523d82523d6000602084013e6114e3565b606091505b5050905080611527576040517f08c379a000000000000000000000000000000000000000000000000000000000815260040161151e906148dd565b60405180910390fd5b50565b61154583838360405180602001604052806000815250612179565b505050565b61155b61155561280a565b82612a16565b61159a576040517f08c379a000000000000000000000000000000000000000000000000000000000815260040161159190614949565b60405180910390fd5b6115a381612dc4565b50565b606060006115b383611cba565b90506000810361160f57600067ffffffffffffffff8111156115d8576115d7613a65565b5b6040519080825280602002602001820160405280156116065781602001602082028036833780820191505090505b509150506116aa565b60008167ffffffffffffffff81111561162b5761162a613a65565b5b6040519080825280602002602001820160405280156116595781602001602082028036833780820191505090505b50905060005b828110156116a35761167185826112ff565b8282815181106116845761168361481c565b5b602002602001018181525050808061169b9061417f565b91505061165f565b5080925050505b919050565b6000805b83839050811015611763578473ffffffffffffffffffffffffffffffffffffffff1660028585848181106116ea576116e961481c565b5b90506020020135815481106117025761170161481c565b5b9060005260206000200160009054906101000a900473ffffffffffffffffffffffffffffffffffffffff1673ffffffffffffffffffffffffffffffffffffffff1614611752576000915050611769565b8061175c9061417f565b90506116b3565b50600190505b9392505050565b600060028054905082106117b9576040517f08c379a00000000000000000000000000000000000000000000000000000000081526004016117b0906149db565b60405180910390fd5b819050919050565b600c60009054906101000a900460ff1681565b6117dc61278c565b80600690816117eb9190614ba7565b5050565b60005b82518110156118345761182185858584815181106118135761181261481c565b5b602002602001015185612179565b808061182c9061417f565b9150506117f2565b5050505050565b600d6020528060005260406000206000915054906101000a900460ff1681565b600080600283815481106118725761187161481c565b5b9060005260206000200160009054906101000a900473ffffffffffffffffffffffffffffffffffffffff169050600073ffffffffffffffffffffffffffffffffffffffff168173ffffffffffffffffffffffffffffffffffffffff160361190e576040517f08c379a000000000000000000000000000000000000000000000000000000000815260040161190590614ceb565b60405180910390fd5b80915050919050565b6060600061192361280a565b60405160200161193391906144b7565b60405160208183030381529060405290506119986119518683612d7a565b858580806020026020016040519081016040528093929190818152602001838360200280828437600081840152601f19601f82011690508083019250505050505050612dad565b6119d7576040517f08c379a00000000000000000000000000000000000000000000000000000000081526004016119ce90614544565b60405180910390fd5b849150509392505050565b600033846040516020016119f7929190614d2c565b604051602081830303815290604052805190602001209050611a5d838380806020026020016040519081016040528093929190818152602001838360200280828437600081840152601f19601f82011690508083019250505050505050600a5483612ea6565b611a9c576040517f08c379a0000000000000000000000000000000000000000000000000000000008152600401611a9390614da4565b60405180910390fd5b8385600e6000611aaa61280a565b73ffffffffffffffffffffffffffffffffffffffff1673ffffffffffffffffffffffffffffffffffffffff16815260200190815260200160002054611aef9190614564565b1115611b30576040517f08c379a0000000000000000000000000000000000000000000000000000000008152600401611b27906145e4565b60405180910390fd5b3464e8d4a5100086611b429190614604565b14611b82576040517f08c379a0000000000000000000000000000000000000000000000000000000008152600401611b7990614692565b60405180910390fd5b84600e6000611b8f61280a565b73ffffffffffffffffffffffffffffffffffffffff1673ffffffffffffffffffffffffffffffffffffffff1681526020019081526020016000206000828254611bd89190614564565b925050819055506000600280549050905060005b86811015611c2357611c10611bff61280a565b8284611c0b9190614564565b612812565b8080611c1b9061417f565b915050611bec565b50505050505050565b60068054611c39906141f6565b80601f0160208091040260200160405190810160405280929190818152602001828054611c65906141f6565b8015611cb25780601f10611c8757610100808354040283529160200191611cb2565b820191906000526020600020905b815481529060010190602001808311611c9557829003601f168201915b505050505081565b60008073ffffffffffffffffffffffffffffffffffffffff168273ffffffffffffffffffffffffffffffffffffffff1603611d2a576040517f08c379a0000000000000000000000000000000000000000000000000000000008152600401611d2190614e36565b60405180910390fd5b6000805b600280549050811015611dca5760028181548110611d4f57611d4e61481c565b5b9060005260206000200160009054906101000a900473ffffffffffffffffffffffffffffffffffffffff1673ffffffffffffffffffffffffffffffffffffffff168473ffffffffffffffffffffffffffffffffffffffff1603611db95781611db69061417f565b91505b80611dc39061417f565b9050611d2e565b5080915050919050565b611ddc61278c565b611de66000612ebd565b565b600960009054906101000a900473ffffffffffffffffffffffffffffffffffffffff1681565b611e1661278c565b600a6000905580600b8190555050565b6000600560009054906101000a900473ffffffffffffffffffffffffffffffffffffffff16905090565b611e5861278c565b80600960006101000a81548173ffffffffffffffffffffffffffffffffffffffff021916908373ffffffffffffffffffffffffffffffffffffffff16021790555050565b606060018054611eab906141f6565b80601f0160208091040260200160405190810160405280929190818152602001828054611ed7906141f6565b8015611f245780601f10611ef957610100808354040283529160200191611f24565b820191906000526020600020905b815481529060010190602001808311611f0757829003601f168201915b5050505050905090565b60078054611f3b906141f6565b80601f0160208091040260200160405190810160405280929190818152602001828054611f67906141f6565b8015611fb45780601f10611f8957610100808354040283529160200191611fb4565b820191906000526020600020905b815481529060010190602001808311611f9757829003601f168201915b505050505081565b600e6020528060005260406000206000915090505481565b611fdc61280a565b73ffffffffffffffffffffffffffffffffffffffff168273ffffffffffffffffffffffffffffffffffffffff1603612049576040517f08c379a000000000000000000000000000000000000000000000000000000000815260040161204090614ea2565b60405180910390fd5b806004600061205661280a565b73ffffffffffffffffffffffffffffffffffffffff1673ffffffffffffffffffffffffffffffffffffffff16815260200190815260200160002060008473ffffffffffffffffffffffffffffffffffffffff1673ffffffffffffffffffffffffffffffffffffffff16815260200190815260200160002060006101000a81548160ff0219169083151502179055508173ffffffffffffffffffffffffffffffffffffffff1661210361280a565b73ffffffffffffffffffffffffffffffffffffffff167f17307eab39ab6107e8899845ad3d59bd9653f200f220920489ca2b5937696c3183604051612148919061351b565b60405180910390a35050565b61215c61278c565b6001600c60006101000a81548160ff021916908315150217905550565b61218a61218461280a565b83612a16565b6121c9576040517f08c379a00000000000000000000000000000000000000000000000000000000081526004016121c09061444f565b60405180910390fd5b6121d584848484612f83565b50505050565b606060001515600c60009054906101000a900460ff1615150361228a5760078054612205906141f6565b80601f0160208091040260200160405190810160405280929190818152602001828054612231906141f6565b801561227e5780601f106122535761010080835404028352916020019161227e565b820191906000526020600020905b81548152906001019060200180831161226157829003601f168201915b50505050509050612300565b612293826128d5565b6122d2576040517f08c379a00000000000000000000000000000000000000000000000000000000081526004016122c990614f0e565b60405180910390fd5b60066122dd83612cac565b6040516020016122ee929190615039565b60405160208183030381529060405290505b919050565b60008061231061280a565b60405160200161232091906144b7565b604051602081830303815290604052905061233b8382612d7a565b915050919050565b600860009054906101000a900473ffffffffffffffffffffffffffffffffffffffff1681565b61237161278c565b80600860006101000a81548173ffffffffffffffffffffffffffffffffffffffff021916908373ffffffffffffffffffffffffffffffffffffffff16021790555050565b600080600860009054906101000a900473ffffffffffffffffffffffffffffffffffffffff1690508273ffffffffffffffffffffffffffffffffffffffff168173ffffffffffffffffffffffffffffffffffffffff1663c4552791866040518263ffffffff1660e01b815260040161242d919061368c565b602060405180830381865afa15801561244a573d6000803e3d6000fd5b505050506040513d601f19601f8201168201806040525081019061246e91906150a6565b73ffffffffffffffffffffffffffffffffffffffff1614806124d95750600d60008473ffffffffffffffffffffffffffffffffffffffff1673ffffffffffffffffffffffffffffffffffffffff16815260200190815260200160002060009054906101000a900460ff165b156124e85760019150506124f6565b6124f28484612fdf565b9150505b92915050565b61250461278c565b600073ffffffffffffffffffffffffffffffffffffffff168173ffffffffffffffffffffffffffffffffffffffff1603612573576040517f08c379a000000000000000000000000000000000000000000000000000000000815260040161256a90615145565b60405180910390fd5b61257c81612ebd565b50565b60005b81518110156125c3576125b084848484815181106125a3576125a261481c565b5b6020026020010151610f16565b80806125bb9061417f565b915050612582565b50505050565b600681565b6125d661278c565b600d60008273ffffffffffffffffffffffffffffffffffffffff1673ffffffffffffffffffffffffffffffffffffffff16815260200190815260200160002060009054906101000a900460ff1615600d60008373ffffffffffffffffffffffffffffffffffffffff1673ffffffffffffffffffffffffffffffffffffffff16815260200190815260200160002060006101000a81548160ff02191690831515021790555050565b61268561278c565b80600a8190555050565b61269761278c565b80600790816126a69190614ba7565b5050565b60007f80ac58cd000000000000000000000000000000000000000000000000000000007bffffffffffffffffffffffffffffffffffffffffffffffffffffffff1916827bffffffffffffffffffffffffffffffffffffffffffffffffffffffff1916148061277557507f5b5e139f000000000000000000000000000000000000000000000000000000007bffffffffffffffffffffffffffffffffffffffffffffffffffffffff1916827bffffffffffffffffffffffffffffffffffffffffffffffffffffffff1916145b80612785575061278482613073565b5b9050919050565b61279461280a565b73ffffffffffffffffffffffffffffffffffffffff166127b2611e26565b73ffffffffffffffffffffffffffffffffffffffff1614612808576040517f08c379a00000000000000000000000000000000000000000000000000000000081526004016127ff906151b1565b60405180910390fd5b565b600033905090565b6002829080600181540180825580915050600190039060005260206000200160009091909190916101000a81548173ffffffffffffffffffffffffffffffffffffffff021916908373ffffffffffffffffffffffffffffffffffffffff160217905550808273ffffffffffffffffffffffffffffffffffffffff16600073ffffffffffffffffffffffffffffffffffffffff167fddf252ad1be2c89b69c2b068fc378daa952ba7f163c4a11628f55a4df523b3ef60405160405180910390a45050565b6000600280549050821080156129565750600073ffffffffffffffffffffffffffffffffffffffff16600283815481106129125761291161481c565b5b9060005260206000200160009054906101000a900473ffffffffffffffffffffffffffffffffffffffff1673ffffffffffffffffffffffffffffffffffffffff1614155b9050919050565b816003600083815260200190815260200160002060006101000a81548173ffffffffffffffffffffffffffffffffffffffff021916908373ffffffffffffffffffffffffffffffffffffffff160217905550808273ffffffffffffffffffffffffffffffffffffffff166129d08361185b565b73ffffffffffffffffffffffffffffffffffffffff167f8c5be1e5ebec7d5bd14f71427d1e84f3dd0314c0f7b2291e5b200ac8c7c3b92560405160405180910390a45050565b6000612a21826128d5565b612a60576040517f08c379a0000000000000000000000000000000000000000000000000000000008152600401612a5790615243565b60405180910390fd5b6000612a6b8361185b565b90508073ffffffffffffffffffffffffffffffffffffffff168473ffffffffffffffffffffffffffffffffffffffff161480612ada57508373ffffffffffffffffffffffffffffffffffffffff16612ac284610d68565b73ffffffffffffffffffffffffffffffffffffffff16145b80612aeb5750612aea81856123b5565b5b91505092915050565b8273ffffffffffffffffffffffffffffffffffffffff16612b148261185b565b73ffffffffffffffffffffffffffffffffffffffff1614612b6a576040517f08c379a0000000000000000000000000000000000000000000000000000000008152600401612b61906152d5565b60405180910390fd5b600073ffffffffffffffffffffffffffffffffffffffff168273ffffffffffffffffffffffffffffffffffffffff1603612bd9576040517f08c379a0000000000000000000000000000000000000000000000000000000008152600401612bd090615367565b60405180910390fd5b612be48383836130dd565b612bef60008261295d565b8160028281548110612c0457612c0361481c565b5b9060005260206000200160006101000a81548173ffffffffffffffffffffffffffffffffffffffff021916908373ffffffffffffffffffffffffffffffffffffffff160217905550808273ffffffffffffffffffffffffffffffffffffffff168473ffffffffffffffffffffffffffffffffffffffff167fddf252ad1be2c89b69c2b068fc378daa952ba7f163c4a11628f55a4df523b3ef60405160405180910390a4505050565b606060006001612cbb846130e2565b01905060008167ffffffffffffffff811115612cda57612cd9613a65565b5b6040519080825280601f01601f191660200182016040528015612d0c5781602001600182028036833780820191505090505b509050600082602001820190505b600115612d6f578080600190039150507f3031323334353637383961626364656600000000000000000000000000000000600a86061a8153600a8581612d6357612d62615387565b5b04945060008503612d1a575b819350505050919050565b60008183604051602001612d8f9291906153b6565b60405160208183030381529060405280519060200120905092915050565b6000612dbc82600a5485612ea6565b905092915050565b6000612dcf8261185b565b9050612ddd816000846130dd565b612de860008361295d565b600060028381548110612dfe57612dfd61481c565b5b9060005260206000200160006101000a81548173ffffffffffffffffffffffffffffffffffffffff021916908373ffffffffffffffffffffffffffffffffffffffff16021790555081600073ffffffffffffffffffffffffffffffffffffffff168273ffffffffffffffffffffffffffffffffffffffff167fddf252ad1be2c89b69c2b068fc378daa952ba7f163c4a11628f55a4df523b3ef60405160405180910390a45050565b600082612eb38584613235565b1490509392505050565b6000600560009054906101000a900473ffffffffffffffffffffffffffffffffffffffff16905081600560006101000a81548173ffffffffffffffffffffffffffffffffffffffff021916908373ffffffffffffffffffffffffffffffffffffffff1602179055508173ffffffffffffffffffffffffffffffffffffffff168173ffffffffffffffffffffffffffffffffffffffff167f8be0079c531659141344cd1fd0a4f28419497f9722a3daafe3b4186f6b6457e060405160405180910390a35050565b612f8e848484612af4565b612f9a8484848461328b565b612fd9576040517f08c379a0000000000000000000000000000000000000000000000000000000008152600401612fd09061544c565b60405180910390fd5b50505050565b6000600460008473ffffffffffffffffffffffffffffffffffffffff1673ffffffffffffffffffffffffffffffffffffffff16815260200190815260200160002060008373ffffffffffffffffffffffffffffffffffffffff1673ffffffffffffffffffffffffffffffffffffffff16815260200190815260200160002060009054906101000a900460ff16905092915050565b60007f01ffc9a7000000000000000000000000000000000000000000000000000000007bffffffffffffffffffffffffffffffffffffffffffffffffffffffff1916827bffffffffffffffffffffffffffffffffffffffffffffffffffffffff1916149050919050565b505050565b600080600090507a184f03e93ff9f4daa797ed6e38ed64bf6a1f0100000000000000008310613140577a184f03e93ff9f4daa797ed6e38ed64bf6a1f010000000000000000838161313657613135615387565b5b0492506040810190505b6d04ee2d6d415b85acef8100000000831061317d576d04ee2d6d415b85acef8100000000838161317357613172615387565b5b0492506020810190505b662386f26fc1000083106131ac57662386f26fc1000083816131a2576131a1615387565b5b0492506010810190505b6305f5e10083106131d5576305f5e10083816131cb576131ca615387565b5b0492506008810190505b61271083106131fa5761271083816131f0576131ef615387565b5b0492506004810190505b6064831061321d576064838161321357613212615387565b5b0492506002810190505b600a831061322c576001810190505b80915050919050565b60008082905060005b84518110156132805761326b8286838151811061325e5761325d61481c565b5b6020026020010151613412565b915080806132789061417f565b91505061323e565b508091505092915050565b60006132ac8473ffffffffffffffffffffffffffffffffffffffff1661343d565b15613405578373ffffffffffffffffffffffffffffffffffffffff1663150b7a026132d561280a565b8786866040518563ffffffff1660e01b81526004016132f794939291906154c1565b6020604051808303816000875af192505050801561333357506040513d601f19601f820116820180604052508101906133309190615522565b60015b6133b5573d8060008114613363576040519150601f19603f3d011682016040523d82523d6000602084013e613368565b606091505b5060008151036133ad576040517f08c379a00000000000000000000000000000000000000000000000000000000081526004016133a49061544c565b60405180910390fd5b805181602001fd5b63150b7a0260e01b7bffffffffffffffffffffffffffffffffffffffffffffffffffffffff1916817bffffffffffffffffffffffffffffffffffffffffffffffffffffffff19161491505061340a565b600190505b949350505050565b600081831061342a576134258284613450565b613435565b6134348383613450565b5b905092915050565b600080823b905060008111915050919050565b600082600052816020526040600020905092915050565b6000604051905090565b600080fd5b600080fd5b60007fffffffff0000000000000000000000000000000000000000000000000000000082169050919050565b6134b08161347b565b81146134bb57600080fd5b50565b6000813590506134cd816134a7565b92915050565b6000602082840312156134e9576134e8613471565b5b60006134f7848285016134be565b91505092915050565b60008115159050919050565b61351581613500565b82525050565b6000602082019050613530600083018461350c565b92915050565b600081519050919050565b600082825260208201905092915050565b60005b83811015613570578082015181840152602081019050613555565b60008484015250505050565b6000601f19601f8301169050919050565b600061359882613536565b6135a28185613541565b93506135b2818560208601613552565b6135bb8161357c565b840191505092915050565b600060208201905081810360008301526135e0818461358d565b905092915050565b6000819050919050565b6135fb816135e8565b811461360657600080fd5b50565b600081359050613618816135f2565b92915050565b60006020828403121561363457613633613471565b5b600061364284828501613609565b91505092915050565b600073ffffffffffffffffffffffffffffffffffffffff82169050919050565b60006136768261364b565b9050919050565b6136868161366b565b82525050565b60006020820190506136a1600083018461367d565b92915050565b6136b0816135e8565b82525050565b60006020820190506136cb60008301846136a7565b92915050565b6136da8161366b565b81146136e557600080fd5b50565b6000813590506136f7816136d1565b92915050565b6000806040838503121561371457613713613471565b5b6000613722858286016136e8565b925050602061373385828601613609565b9150509250929050565b60008060006060848603121561375657613755613471565b5b6000613764868287016136e8565b9350506020613775868287016136e8565b925050604061378686828701613609565b9150509250925092565b6000819050919050565b6137a381613790565b82525050565b60006020820190506137be600083018461379a565b92915050565b600080fd5b600080fd5b600080fd5b60008083601f8401126137e9576137e86137c4565b5b8235905067ffffffffffffffff811115613806576138056137c9565b5b602083019150836020820283011115613822576138216137ce565b5b9250929050565b6000806000806060858703121561384357613842613471565b5b600061385187828801613609565b945050602061386287828801613609565b935050604085013567ffffffffffffffff81111561388357613882613476565b5b61388f878288016137d3565b925092505092959194509250565b6000602082840312156138b3576138b2613471565b5b60006138c1848285016136e8565b91505092915050565b600081519050919050565b600082825260208201905092915050565b6000819050602082019050919050565b6138ff816135e8565b82525050565b600061391183836138f6565b60208301905092915050565b6000602082019050919050565b6000613935826138ca565b61393f81856138d5565b935061394a836138e6565b8060005b8381101561397b5781516139628882613905565b975061396d8361391d565b92505060018101905061394e565b5085935050505092915050565b600060208201905081810360008301526139a2818461392a565b905092915050565b60008083601f8401126139c0576139bf6137c4565b5b8235905067ffffffffffffffff8111156139dd576139dc6137c9565b5b6020830191508360208202830111156139f9576139f86137ce565b5b9250929050565b600080600060408486031215613a1957613a18613471565b5b6000613a27868287016136e8565b935050602084013567ffffffffffffffff811115613a4857613a47613476565b5b613a54868287016139aa565b92509250509250925092565b600080fd5b7f4e487b7100000000000000000000000000000000000000000000000000000000600052604160045260246000fd5b613a9d8261357c565b810181811067ffffffffffffffff82111715613abc57613abb613a65565b5b80604052505050565b6000613acf613467565b9050613adb8282613a94565b919050565b600067ffffffffffffffff821115613afb57613afa613a65565b5b613b048261357c565b9050602081019050919050565b82818337600083830152505050565b6000613b33613b2e84613ae0565b613ac5565b905082815260208101848484011115613b4f57613b4e613a60565b5b613b5a848285613b11565b509392505050565b600082601f830112613b7757613b766137c4565b5b8135613b87848260208601613b20565b91505092915050565b600060208284031215613ba657613ba5613471565b5b600082013567ffffffffffffffff811115613bc457613bc3613476565b5b613bd084828501613b62565b91505092915050565b600067ffffffffffffffff821115613bf457613bf3613a65565b5b602082029050602081019050919050565b6000613c18613c1384613bd9565b613ac5565b90508083825260208201905060208402830185811115613c3b57613c3a6137ce565b5b835b81811015613c645780613c508882613609565b845260208401935050602081019050613c3d565b5050509392505050565b600082601f830112613c8357613c826137c4565b5b8135613c93848260208601613c05565b91505092915050565b600067ffffffffffffffff821115613cb757613cb6613a65565b5b613cc08261357c565b9050602081019050919050565b6000613ce0613cdb84613c9c565b613ac5565b905082815260208101848484011115613cfc57613cfb613a60565b5b613d07848285613b11565b509392505050565b600082601f830112613d2457613d236137c4565b5b8135613d34848260208601613ccd565b91505092915050565b60008060008060808587031215613d5757613d56613471565b5b6000613d65878288016136e8565b9450506020613d76878288016136e8565b935050604085013567ffffffffffffffff811115613d9757613d96613476565b5b613da387828801613c6e565b925050606085013567ffffffffffffffff811115613dc457613dc3613476565b5b613dd087828801613d0f565b91505092959194509250565b600080600060408486031215613df557613df4613471565b5b600084013567ffffffffffffffff811115613e1357613e12613476565b5b613e1f86828701613b62565b935050602084013567ffffffffffffffff811115613e4057613e3f613476565b5b613e4c868287016137d3565b92509250509250925092565b6000613e638261364b565b9050919050565b613e7381613e58565b82525050565b6000602082019050613e8e6000830184613e6a565b92915050565b613e9d81613e58565b8114613ea857600080fd5b50565b600081359050613eba81613e94565b92915050565b600060208284031215613ed657613ed5613471565b5b6000613ee484828501613eab565b91505092915050565b613ef681613500565b8114613f0157600080fd5b50565b600081359050613f1381613eed565b92915050565b60008060408385031215613f3057613f2f613471565b5b6000613f3e858286016136e8565b9250506020613f4f85828601613f04565b9150509250929050565b60008060008060808587031215613f7357613f72613471565b5b6000613f81878288016136e8565b9450506020613f92878288016136e8565b9350506040613fa387828801613609565b925050606085013567ffffffffffffffff811115613fc457613fc3613476565b5b613fd087828801613d0f565b91505092959194509250565b60008060408385031215613ff357613ff2613471565b5b6000614001858286016136e8565b9250506020614012858286016136e8565b9150509250929050565b60008060006060848603121561403557614034613471565b5b6000614043868287016136e8565b9350506020614054868287016136e8565b925050604084013567ffffffffffffffff81111561407557614074613476565b5b61408186828701613c6e565b9150509250925092565b61409481613790565b811461409f57600080fd5b50565b6000813590506140b18161408b565b92915050565b6000602082840312156140cd576140cc613471565b5b60006140db848285016140a2565b91505092915050565b7f526573657276657320616c72656164792074616b656e2e000000000000000000600082015250565b600061411a601783613541565b9150614125826140e4565b602082019050919050565b600060208201905081810360008301526141498161410d565b9050919050565b7f4e487b7100000000000000000000000000000000000000000000000000000000600052601160045260246000fd5b600061418a826135e8565b91507fffffffffffffffffffffffffffffffffffffffffffffffffffffffffffffffff82036141bc576141bb614150565b5b600182019050919050565b7f4e487b7100000000000000000000000000000000000000000000000000000000600052602260045260246000fd5b6000600282049050600182168061420e57607f821691505b602082108103614221576142206141c7565b5b50919050565b7f4552433732313a20617070726f76656420717565727920666f72206e6f6e657860008201527f697374656e7420746f6b656e0000000000000000000000000000000000000000602082015250565b6000614283602c83613541565b915061428e82614227565b604082019050919050565b600060208201905081810360008301526142b281614276565b9050919050565b7f4552433732313a20617070726f76616c20746f2063757272656e74206f776e6560008201527f7200000000000000000000000000000000000000000000000000000000000000602082015250565b6000614315602183613541565b9150614320826142b9565b604082019050919050565b6000602082019050818103600083015261434481614308565b9050919050565b7f4552433732313a20617070726f76652063616c6c6572206973206e6f74206f7760008201527f6e6572206e6f7220617070726f76656420666f7220616c6c0000000000000000602082015250565b60006143a7603883613541565b91506143b28261434b565b604082019050919050565b600060208201905081810360008301526143d68161439a565b9050919050565b7f4552433732313a207472616e736665722063616c6c6572206973206e6f74206f60008201527f776e6572206e6f7220617070726f766564000000000000000000000000000000602082015250565b6000614439603183613541565b9150614444826143dd565b604082019050919050565b600060208201905081810360008301526144688161442c565b9050919050565b60008160601b9050919050565b60006144878261446f565b9050919050565b60006144998261447c565b9050919050565b6144b16144ac8261366b565b61448e565b82525050565b60006144c382846144a0565b60148201915081905092915050565b7f496e76616c6964204d65726b6c6520547265652070726f6f6620737570706c6960008201527f65642e0000000000000000000000000000000000000000000000000000000000602082015250565b600061452e602383613541565b9150614539826144d2565b604082019050919050565b6000602082019050818103600083015261455d81614521565b9050919050565b600061456f826135e8565b915061457a836135e8565b925082820190508082111561459257614591614150565b5b92915050565b7f457863656564732077686974656c69737420737570706c790000000000000000600082015250565b60006145ce601883613541565b91506145d982614598565b602082019050919050565b600060208201905081810360008301526145fd816145c1565b9050919050565b600061460f826135e8565b915061461a836135e8565b9250828202614628816135e8565b9150828204841483151761463f5761463e614150565b5b5092915050565b7f496e76616c69642066756e64732070726f76696465642e000000000000000000600082015250565b600061467c601783613541565b915061468782614646565b602082019050919050565b600060208201905081810360008301526146ab8161466f565b9050919050565b7f45786365646573206d617820737570706c792e00000000000000000000000000600082015250565b60006146e8601383613541565b91506146f3826146b2565b602082019050919050565b60006020820190508181036000830152614717816146db565b9050919050565b7f45786365656473206d617820706572207472616e73616374696f6e2e00000000600082015250565b6000614754601c83613541565b915061475f8261471e565b602082019050919050565b6000602082019050818103600083015261478381614747565b9050919050565b7f455243373231456e756d657261626c653a206f776e657220696e646578206f7560008201527f74206f6620626f756e6473000000000000000000000000000000000000000000602082015250565b60006147e6602b83613541565b91506147f18261478a565b604082019050919050565b60006020820190508181036000830152614815816147d9565b9050919050565b7f4e487b7100000000000000000000000000000000000000000000000000000000600052603260045260246000fd5b600081905092915050565b50565b600061486660008361484b565b915061487182614856565b600082019050919050565b600061488782614859565b9150819050919050565b7f4661696c656420746f2073656e6420746f2057414c4c45545f412e0000000000600082015250565b60006148c7601b83613541565b91506148d282614891565b602082019050919050565b600060208201905081810360008301526148f6816148ba565b9050919050565b7f4e6f7420617070726f76656420746f206275726e2e0000000000000000000000600082015250565b6000614933601583613541565b915061493e826148fd565b602082019050919050565b6000602082019050818103600083015261496281614926565b9050919050565b7f455243373231456e756d657261626c653a20676c6f62616c20696e646578206f60008201527f7574206f6620626f756e64730000000000000000000000000000000000000000602082015250565b60006149c5602c83613541565b91506149d082614969565b604082019050919050565b600060208201905081810360008301526149f4816149b8565b9050919050565b60008190508160005260206000209050919050565b60006020601f8301049050919050565b600082821b905092915050565b600060088302614a5d7fffffffffffffffffffffffffffffffffffffffffffffffffffffffffffffffff82614a20565b614a678683614a20565b95508019841693508086168417925050509392505050565b6000819050919050565b6000614aa4614a9f614a9a846135e8565b614a7f565b6135e8565b9050919050565b6000819050919050565b614abe83614a89565b614ad2614aca82614aab565b848454614a2d565b825550505050565b600090565b614ae7614ada565b614af2818484614ab5565b505050565b5b81811015614b1657614b0b600082614adf565b600181019050614af8565b5050565b601f821115614b5b57614b2c816149fb565b614b3584614a10565b81016020851015614b44578190505b614b58614b5085614a10565b830182614af7565b50505b505050565b600082821c905092915050565b6000614b7e60001984600802614b60565b1980831691505092915050565b6000614b978383614b6d565b9150826002028217905092915050565b614bb082613536565b67ffffffffffffffff811115614bc957614bc8613a65565b5b614bd382546141f6565b614bde828285614b1a565b600060209050601f831160018114614c115760008415614bff578287015190505b614c098582614b8b565b865550614c71565b601f198416614c1f866149fb565b60005b82811015614c4757848901518255600182019150602085019450602081019050614c22565b86831015614c645784890151614c60601f891682614b6d565b8355505b6001600288020188555050505b505050505050565b7f4552433732313a206f776e657220717565727920666f72206e6f6e657869737460008201527f656e7420746f6b656e0000000000000000000000000000000000000000000000602082015250565b6000614cd5602983613541565b9150614ce082614c79565b604082019050919050565b60006020820190508181036000830152614d0481614cc8565b9050919050565b6000819050919050565b614d26614d21826135e8565b614d0b565b82525050565b6000614d3882856144a0565b601482019150614d488284614d15565b6020820191508190509392505050565b7f696e76616c69642070726f6f6600000000000000000000000000000000000000600082015250565b6000614d8e600d83613541565b9150614d9982614d58565b602082019050919050565b60006020820190508181036000830152614dbd81614d81565b9050919050565b7f4552433732313a2062616c616e636520717565727920666f7220746865207a6560008201527f726f206164647265737300000000000000000000000000000000000000000000602082015250565b6000614e20602a83613541565b9150614e2b82614dc4565b604082019050919050565b60006020820190508181036000830152614e4f81614e13565b9050919050565b7f4552433732313a20617070726f766520746f2063616c6c657200000000000000600082015250565b6000614e8c601983613541565b9150614e9782614e56565b602082019050919050565b60006020820190508181036000830152614ebb81614e7f565b9050919050565b7f546f6b656e20646f6573206e6f742065786973742e0000000000000000000000600082015250565b6000614ef8601583613541565b9150614f0382614ec2565b602082019050919050565b60006020820190508181036000830152614f2781614eeb565b9050919050565b600081905092915050565b60008154614f46816141f6565b614f508186614f2e565b94506001821660008114614f6b5760018114614f8057614fb3565b60ff1983168652811515820286019350614fb3565b614f89856149fb565b60005b83811015614fab57815481890152600182019150602081019050614f8c565b838801955050505b50505092915050565b6000614fc782613536565b614fd18185614f2e565b9350614fe1818560208601613552565b80840191505092915050565b7f2e6a736f6e000000000000000000000000000000000000000000000000000000600082015250565b6000615023600583614f2e565b915061502e82614fed565b600582019050919050565b60006150458285614f39565b91506150518284614fbc565b915061505c82615016565b91508190509392505050565b60006150738261366b565b9050919050565b61508381615068565b811461508e57600080fd5b50565b6000815190506150a08161507a565b92915050565b6000602082840312156150bc576150bb613471565b5b60006150ca84828501615091565b91505092915050565b7f4f776e61626c653a206e6577206f776e657220697320746865207a65726f206160008201527f6464726573730000000000000000000000000000000000000000000000000000602082015250565b600061512f602683613541565b915061513a826150d3565b604082019050919050565b6000602082019050818103600083015261515e81615122565b9050919050565b7f4f776e61626c653a2063616c6c6572206973206e6f7420746865206f776e6572600082015250565b600061519b602083613541565b91506151a682615165565b602082019050919050565b600060208201905081810360008301526151ca8161518e565b9050919050565b7f4552433732313a206f70657261746f7220717565727920666f72206e6f6e657860008201527f697374656e7420746f6b656e0000000000000000000000000000000000000000602082015250565b600061522d602c83613541565b9150615238826151d1565b604082019050919050565b6000602082019050818103600083015261525c81615220565b9050919050565b7f4552433732313a207472616e73666572206f6620746f6b656e2074686174206960008201527f73206e6f74206f776e0000000000000000000000000000000000000000000000602082015250565b60006152bf602983613541565b91506152ca82615263565b604082019050919050565b600060208201905081810360008301526152ee816152b2565b9050919050565b7f4552433732313a207472616e7366657220746f20746865207a65726f2061646460008201527f7265737300000000000000000000000000000000000000000000000000000000602082015250565b6000615351602483613541565b915061535c826152f5565b604082019050919050565b6000602082019050818103600083015261538081615344565b9050919050565b7f4e487b7100000000000000000000000000000000000000000000000000000000600052601260045260246000fd5b60006153c28285614fbc565b91506153ce8284614fbc565b91508190509392505050565b7f4552433732313a207472616e7366657220746f206e6f6e20455243373231526560008201527f63656976657220696d706c656d656e7465720000000000000000000000000000602082015250565b6000615436603283613541565b9150615441826153da565b604082019050919050565b6000602082019050818103600083015261546581615429565b9050919050565b600081519050919050565b600082825260208201905092915050565b60006154938261546c565b61549d8185615477565b93506154ad818560208601613552565b6154b68161357c565b840191505092915050565b60006080820190506154d6600083018761367d565b6154e3602083018661367d565b6154f060408301856136a7565b81810360608301526155028184615488565b905095945050505050565b60008151905061551c816134a7565b92915050565b60006020828403121561553857615537613471565b5b60006155468482850161550d565b9150509291505056fea264697066735822122079d4bd1cdb009211839cf3f4ca080d61639743771d1e52a69054b517f43bfe0664736f6c63430008110033",
    "linkReferences": {},
    "deployedLinkReferences": {}
}